:020000040800F2
:10000000A8090020350200083D0200083F02000850
:1000100041020008430200084502000800000000F9
:10002000000000000000000000000000470200087F
:1000300049020008000000004B0200089913000864
:100040004F0200084F0200084F0200084F0200084C
:100050004F0200084F0200084F0200084F0200083C
:100060004F0200084F0200084F0200084F0200082C
:100070004F0200084F0200084F0200084F0200081C
:100080004F0200084F0200084F0200080000000065
:100090000000000000000000000000004F02000807
:1000A0004F0200084F0200084F0200084F020008EC
:1000B0004F0200084F0200084F0200084F020008DC
:1000C0004F0200084F0200084F0200084F020008CC
:1000D0004F0200084F0200084F0200080000000015
:1000E0004F0200084F0200084F0200080000000005
:1000F0000000000000000000000000004F020008A7
:10010000000000004F0200084F0200084F020008E4
:1001100000000000000000000000000000000000DF
:100120004F0200084F0200084F0200084F0200086B
:100130004F02000800000000000000000000000066
:100140000000000000000000000000004F02000856
:100150004F0200084F0200084F0200084F0200083B
:100160004F0200084F0200080000000000000000DD
:10017000000000000000000000000000000000007F
:10018000000000004F020008000000000000000016
:100190004F02000800F002F800F03CF80AA090E8D6
:1001A000000C82448344AAF10107DA4501D100F032
:1001B00031F8AFF2090EBAE80F0013F0010F18BFC3
:1001C000FB1A43F00103184798170000B817000006
:1001D000103A24BF78C878C1FAD8520724BF30C873
:1001E00030C144BF04680C60704700000023002445
:1001F00000250026103A28BF78C1FBD8520728BF37
:1002000030C148BF0B6070471FB501F08FFB1FBDA9
:1002100010B510BD00F0C8F81146FFF7F5FF01F06A
:100220006DFB00F0E6F803B4FFF7F2FF03BC00F04B
:10023000EDF800000948804709480047FEE7FEE75F
:10024000FEE7FEE7FEE7FEE7FEE7FEE7FEE7FEE786
:1002500004480549054A064B70470000A9130008E9
:1002600095010008A8030020A8090020A805002087
:10027000A805002053EA020C00F069802DE9F04B3C
:100280004FF00006002B1FBFB3FA83F503FA05F405
:1002900024FA05F65E4012BF1643B2FA82F502FA5E
:1002A00005F4C5F120051EBF22FA05FC44EA0C0442
:1002B000203556EA044C4FEA144418BF641C4FF032
:1002C00000084FF00009904271EB030C39D300296C
:1002D00019BFB1FA81F701FA07F6B0FA80F700FA10
:1002E00007F6C7F120071EBF20FA07FC46EA0C06F6
:1002F0002037B6FBF4FCA7EB0507103F07F01F0BF8
:10030000CBF120062CFA06F60CFA0BFB44BFB346E1
:100310000026202FA4BF5E464FF0000B5BEA060CC0
:1003200008BF4FF0010B19EB0B0948EB0608ABFBBC
:10033000027C06FB02CC0BFB03CCC01B71EB0C0157
:10034000C1E70B46024641464846BDE8F08B13B56F
:10035000084318BF4FF0FF300146AFF30080BDE8FF
:100360001C40704710B5431C02E010F8011B71B12E
:100370008107FAD14FF0013202C88C1A8C4314EA7B
:10038000C211F9D0C01A0A0603D0C01E10BDC01A8F
:1003900010BD0A0401D0801E10BD0902FCD0401E11
:1003A00010BD704770477047754600F02BF8AE4699
:1003B00005006946534620F00700854618B020B571
:1003C000FFF746FFBDE820404FF000064FF0000762
:1003D0004FF000084FF0000BAC46ACE8C009ACE8A9
:1003E000C009ACE8C009ACE8C00921F007018D469E
:1003F000704710B50446AFF300802046BDE81040BA
:10040000FFF711BF0048704718000020014918206D
:10041000ABBEFEE72600020070470000022001F09C
:100420007FBA000040F21000C2F200000168042907
:1004300088BF7047DFE801F00E042004340000BFDD
:1004400040F24040C4F2000050F8141C490801601A
:10045000704700BF40F24041C4F2000140F25742F1
:1004600041F8142C0A681AB151F8142C52080A6089
:10047000016801310160704740F24041C4F200015F
:1004800040F29A2241F8142C0A68002AF0D051F860
:10049000142C52080A60016801310160704700BFE6
:1004A00040F24040C4F200000021016070470000AB
:1004B0002DE9F04F82B000F13E4241F2000502F119
:1004C000FF77C4F2020507224FEAB726A84208BF09
:1004D0000422042E38BF4FEAB7224FF0010A00244D
:1004E00000274FF00008009208E000BF023708F133
:1004F0000108202F04F1040400F0B4800E680AFA09
:1005000008F916EA090FF1D0D1F804A00AF0030B9C
:10051000ABF10106012E17D80322866802FA07FE06
:10052000CA6826EA0E06BA40324382604268CAF3BD
:10053000001522EA090205FA08F54FEA480C6FEAAD
:100540000E062A4342600BE00322BA40D643BBF1B9
:10055000030FBC4604D1BC464FF0030B22E000BFA2
:10056000C2688D68324005FA0CF52A43BBF1020FD0
:10057000C26017D16FF0030202EA5802024404F08D
:100580001C030F25D2F820E005FA03FA0D692EEAC4
:100590000A0E05FA03F343EA0E031362D1F804A02E
:1005A0000AF0030B02680BFA0CF332401A431AF4F8
:1005B000403F4FF0010A026098D0002243F6440306
:1005C0000192C4F202031A6843F6004E42F48042DC
:1005D0001A601A68C4F2010E02F480420192019A74
:1005E00028F003024FF6084C7244CFF6FF7C52F815
:1005F0000C3004F00C060F25B540AB43009D05FA06
:1006000006F6334342F80C30DEF808204B6842EA25
:10061000090643F60C4CDD0258BF22EA0906CEF863
:100620000860C4F2010CDCF800209D0242EA0906D1
:1006300058BF22EA0906CCF80060DEF804209D03CA
:1006400042EA090658BF22EA0906CEF80460DEF83D
:100650000020DB0342EA090658BF22EA0906CEF869
:10066000006043E702B0BDE8F08F000040F2A03028
:10067000C2F200000068704780B543F60040C4F243
:100680000200016841F400710160016841F4806179
:100690000160016841F480710160032000F05AF8A4
:1006A000002000F005F800F027F8002080BD0000D1
:1006B00070B540F20006C2F2000640F20C0172680A
:1006C000C2F200014FF47A730968B3FBF2F20446F8
:1006D000B1FBF2F1084600F017FB0F2C4FF00105BB
:1006E00008D838B94FF0FF3021460022002500F02D
:1006F00005F83460284670BD7047000010B54EF60E
:100700000C5CCEF2000CDCF80030C3F3022E8EF04D
:100710000704042C28BF0424BEF103034FF0FF3E5E
:100720000EFA04F438BF0023A14399400EFA03F3F4
:100730009A43114300F00F02043A624409010C325B
:1007400000F16043B0F1FF3FC8BF03F56442117090
:1007500010BD00004EF60C51CEF200010A684FF6B3
:10076000FF031A4060F30A2242F0806040F0FD70FF
:10077000086070472DE9F041002800F08B8043F6B7
:100780000808C4F202080446D8F8F8030D4600F041
:100790000F00884207D288F8F853D8F8F80300F021
:1007A0000F00A84276D12068810717D5410705D5EB
:1007B000D8F8001041F4E051C8F80010010705D541
:1007C000D8F8001041F46041C8F80010D8F80010C3
:1007D000A26821F0F0011143C8F80010C0073FD112
:1007E000D8F8F80300F00F00A84207D988F8F853AA
:1007F000D8F8F80300F00F00A8424BD12068410759
:1008000007D5D8F80010E26821F4E0511143C8F888
:100810000010000708D5D8F80000216920F46040D6
:1008200040EAC100C8F8000000F07CF8D8F80010D9
:1008300041F64612C1F30311C0F60002515C40F2CA
:100840000C0220FA01F140F20000C2F20000006840
:10085000C2F200021160FFF72BFF0020BDE8F0811B
:100860006068811E022907D258F8081C89015CBF04
:100870000120BDE8F08111E0012807D158F8081CDB
:1008800089035CBF0120BDE8F08107E058F8081C2F
:10089000890703D40120BDE8F08100BFD8F800101B
:1008A00021F003010843C8F80000FFF7DFFE064609
:1008B00041F28837D8F80000616800F00C00B0EB16
:1008C000810F8DD0FFF7D2FE801BB842F2D90320F2
:1008D000BDE8F08140F20C0043F60801C2F20000CE
:1008E000C4F202010068096841F65612C1F3822180
:1008F000C0F60002515CC8407047000040F20C0096
:1009000043F60801C2F20000C4F20201006809685F
:1009100041F65612C1F34231C0F60002515CC840A4
:100920007047000010B543F60404C4F20204606886
:1009300000F00C0008280BD0042819BF42F2004038
:10094000C0F2F40047F64000C0F27D1010BD00BFB9
:10095000206821682368490247F64001C0F27D11F2
:1009600000F03F02C3F388105CBF42F20041C0F2C6
:10097000F401A1FB00010023FFF77CFC21680222A7
:10098000C1F3014102EB4101B0FBF1F010BD0000E9
:100990002DE9F04182B000286AD00446007843F681
:1009A0000006C007C4F202060BD0B06800F00C00CD
:1009B000042840F0A1803068800302D560680028D8
:1009C00056D0207880071AD5B06810F00C0F09D0E7
:1009D000B06800F00C00082840F0A8807068400261
:1009E00000F1A4803068800702D5E06801283FD17B
:1009F0003068216920F0F80040EAC10030602078BA
:100A0000000739D4207840074ED4A5695DB3B0689B
:100A100000F00C00082840F0BD80012D28D070683F
:100A2000E16900F480028A4222D1216A00F03F028B
:100A30008A421DD147F6C071626A0140B1EB821F44
:100A400016D1A26A0023CFF6FF7303EBC23200F483
:100A500040316FF30F0291420AD1E16A00F07060F9
:100A6000B0EB016F04D1002002B0BDE8F08100BFFF
:100A7000012002B0BDE8F0816069002840F200006A
:100A8000C4F2472076D00121C0F8801EFFF7EEFDAA
:100A9000054600BF706F8007B4D4FFF7E7FD401B29
:100AA0000228F7D9DDE000BF306C10F080580AD181
:100AB00000200190306C40F080503064306C00F0C9
:100AC00080500190019847F20007C4F2000738688F
:100AD000C00541D4386840F480703860FFF7C6FD27
:100AE000054600BF3868C00536D4FFF7BFFD401B80
:100AF0000228F7D9B5E000BFB06800F00C00082864
:100B000003D1706840023FF556AF6068B0F5803F92
:100B100007D0B0F5A02F40F08D80306840F48020E1
:100B20003060306840F4803030608DE0E06800284C
:100B300052D00020C4F2472001210160FFF796FD4A
:100B4000054600BF306880073FF552AFFFF78EFDC6
:100B5000401B0228F6D984E0A068012805D00528AA
:100B60004ED1306F40F004003067306F40F001002C
:100B700030674FE00021C0F8801EFFF777FD054683
:100B8000706F80077FF53EAFFFF770FD401B0228B6
:100B9000F6D966E00027C4F2472700203866FFF741
:100BA00065FD022D05460BD1306880015ED5FFF74B
:100BB0005DFD401B02284FF00300F5D954E700BF4C
:100BC000306880017FF54FAFFFF750FD401B0228D2
:100BD0004FF00300F4D947E70020C4F2472000217A
:100BE0000160FFF743FD0546306880077FF507AFDA
:100BF000FFF73CFD401B02284FF00300F4D933E718
:100C0000316F002821F001013167316F21F00401BB
:100C100031674DD0FFF72AFD054641F2883700BF06
:100C2000306F800756D4FFF721FD401BB842F7D93B
:100C300017E000BF3168002821F48031316031684D
:100C400021F4802131604FD0FFF710FD054600BF31
:100C5000306880033FF5B5AEFFF708FD401B642800
:100C6000F6D9032002B0BDE8F08100BF04F11C05F5
:100C70002FCD08430021CFF6FF7140EA821001EB2F
:100C8000C3316FF30F0140EA056008437060012033
:100C90003866FFF7EBFC0446306880013FF5E3AEB1
:100CA000FFF7E4FC001B02284FF00300F4D9DBE659
:100CB000FFF7DCFC054641F2883700BF306F800744
:100CC00008D5FFF7D3FC401BB8424FF00300F5D91D
:100CD000CAE600BFB8F1000F7FF497AE306C20F089
:100CE0008050306491E600BFFFF7C0FC054600BFAE
:100CF000306880037FF565AEFFF7B8FC401B6428C1
:100D00004FF00300F4D9AFE6411E0020B0EB116FA5
:100D10001CBF012070474EF21002CEF2000251605B
:100D20004EF62351CEF20001F0230B7007219060A4
:100D300011607047002804BF0120704710B50446B9
:100D4000006C20B90020E063204600F01DF824204C
:100D500020642068C16821F40051C160204600F081
:100D60002DFB2068016921F490410161416921F066
:100D70002A014161C16841F40051C1600020202175
:100D8000A0642164616410BD80B586B0016841F241
:100D90000000C4F20100814202D006B080BD00BF55
:100DA000002143F630020191C4F20202536900F5BA
:100DB000704043F010035361536903F01003019333
:100DC000019B0191136843F001031360126802F064
:100DD00001020192019A4FF4C06201920222CDE910
:100DE0000221032104910721059101A9FFF760FB6E
:100DF00006B080BD2DE9F04381B00446006C202888
:100E00000CD10F4600294FF0010000F0D5801646A6
:100E1000002A00F0D180E06B012803D1022001B04C
:100E2000BDE8F0830120E0634FF0000921201D465A
:100E3000C4F848902064FFF719FCA684E684A168F2
:100E40000646B1F5805F07D1206900281CBF3846EF
:100E50004F46B846074601E04FF00008C4F83C9002
:100E6000E18C2068002900F0878005F1010909E084
:100E700047B317F8011B4160E18C0139E184E18C33
:100E8000002979D001680906F2D4B9F1000F0BD01E
:100E9000F5B100BFFFF7EAFB801BA84218D8206815
:100EA00001680906F6D5E3E701680906E0D40168A0
:100EB00009065CBF01685FEA0161D9D401680906CF
:100EC000F2D5D5E738F8021B00276FF35F21D2E790
:100ED000206850E8030F216820F4D07041E8030235
:100EE000BAB3206850E8030F216820F4D07041E8BD
:100EF000030272B3206850E8030F216820F4D07019
:100F000041E803022AB3206850E8030F216820F467
:100F1000D07041E80302002ADAD11AE0206850E8D4
:100F2000050F216820F0010041E80502DAB12068D0
:100F300050E8050F216820F0010041E8050292B158
:100F4000206850E8050F216820F0010041E8050203
:100F50004AB1206850E8050F216820F0010041E8FF
:100F60000502002ADAD12020206460640020E063BA
:100F7000032001B0BDE8F0830168490619D4FDB132
:100F8000691C0DD10168490613D4016849065CBF8C
:100F900001685FEA41610CD401684906F2D508E0B6
:100FA000FFF764FB801BA8420AD82068006840064F
:100FB000F6D520202064002001B0BDE8F08300BFFA
:100FC000206850E8030F216820F4D07041E8030244
:100FD000DAB3206850E8030F216820F4D07041E8AC
:100FE000030292B3206850E8030F216820F4D07008
:100FF00041E803024AB3206850E8030F216820F457
:10100000D07041E80302002ADAD11EE0206850E8DF
:10101000050F216820F0010041E80502002AA2D056
:10102000206850E8050F216820F0010041E8050222
:10103000002A98D0206850E8050F216820F00100B0
:1010400041E80502002A3FF48EAF206850E8050F02
:10105000216820F0010041E80502002AD6D182E78C
:10106000B0B51025C4F20205D5F800C0D5F800E0EF
:101070002A682B68286829682C682D68ED0711D12B
:1010800014F0010408BF11F001010BD110F00100B0
:1010900008BF13F0010005D112F0010008BF1EF0D7
:1010A000010001D0B0BD00BF1CF0010018BFB0BDF1
:1010B0000420BDE8B04000F033BC000040F614004E
:1010C000C4F20200016801F4005141EA014181F4D7
:1010D000005141607047000010B540F2E00CC2F2D0
:1010E000000CDCF81C30002B50D0DCF83C30002B1E
:1010F00050D0DCF85C30002B50D0DCF87C30002B7A
:1011000050D0DCF89C30002B50D0DCF8BC30002BE9
:1011100050D0DCF8DC30002B50D0DCF8FC30002B59
:1011200050D0DCF81C31002B50D0DCF83C31002BC7
:1011300050D0DCF85C31002B50D0DCF87C31002B37
:1011400050D0DCF89C31002B50D0DCF8BC31002BA7
:1011500050D0DCF8DC31002B50D0DCF8FC31002B17
:1011600050D0DCF81C32002B50D0DCF83C32002B85
:1011700050D0DCF85C32002B50D0DCF87C32002BF5
:101180001CBF002010BD4FF0130E49E04FF0000EC1
:1011900046E000BF4FF0010E42E000BF4FF0020EEC
:1011A0003EE000BF4FF0030E3AE000BF4FF0040EE8
:1011B00036E000BF4FF0050E32E000BF4FF0060EE4
:1011C0002EE000BF4FF0070E2AE000BF4FF0080EE0
:1011D00026E000BF4FF0090E22E000BF4FF00A0EDC
:1011E0001EE000BF4FF00B0E1AE000BF4FF00C0ED8
:1011F00016E000BF4FF00D0E12E000BF4FF00E0ED4
:101200000EE000BF4FF00F0E0AE000BF4FF0100ECF
:1012100006E000BF4FF0110E02E000BF4FF0120ECB
:1012200080F002030B434FF000031BD0B5EE400AE1
:10123000F1EE10FA16DB40F20803C2F20003B3F934
:10124000004074454FEA4E14B8BFA3F800E00CEB21
:101250004E134CF80400002083ED040A5961DA6152
:1012600018767346184610BD82B040F20809C2F2E3
:101270000009B9F8000040F2E00AC2F2000AE846AC
:1012800002E000BF80B200BF01B20029FCD40025FB
:10129000002405E00134B9F90000A5B28542F1DC73
:1012A0000AEB45173E4656F81C0F0028F2D0387E50
:1012B0000028EFD168015AF8000002281AD001284E
:1012C00028D00028E6D157F8080F796800F03CFADA
:1012D00097ED021AB4EE410AF1EE10FADADB31684A
:1012E00028468847404600F0F3F9DDE90001C7E9E8
:1012F0000001CFE77969284688470028CAD03168BD
:1013000028468847404600F0E3F9DDE90001C7E9D7
:101310000201BFE707F1080000F080FA97ED041A18
:10132000B4EE410AF1EE10FAB4DB31682846884782
:10133000B0E70000B0B592B0FFF79EF9012006902B
:101340004FF4803007904FF480000D901920022553
:101350000E90A820CDE90F0504200024119006A8C6
:10136000CDE90A44CDE908440C95FFF711FB08B11B
:10137000FEE700BF0F20CDE901054FF48050CDE915
:10138000040401A802210394FFF7F4F910B100BF8F
:10139000FEE700BF12B0B0BD40F27800C2F200001C
:1013A00001680131016070474EF68850CEF20000AE
:1013B000016841F4700101607047000010B50446F7
:1013C0000068D4E902C22369016921F44051114344
:1013D0000161626943EA0C01E3691143C268194380
:1013E00049F20C639A431143C1604169A26921F437
:1013F000407141F20043114340F48062C4F20103A2
:101400009A42416102D1FFF779FA01E0FFF762FAEF
:10141000E16963681922B1F5004FA0FB02011FD1F9
:101420005A00DB0FFEF726FF48F21F51C5F2EB1101
:10143000A0FB01235A096FF0630302FB0300322370
:1014400003EBC000A0FB01014FF4F87000EA11109B
:1014500000EB0210C1F3421108442168886010BDFE
:101460009A009B0FFEF706FF48F21F51C5F2EB11E1
:10147000A0FB01235A096FF0630302FB0300322330
:1014800003EB0010A0FB0101F02000EA511000EB7B
:101490000210C1F3431108442168886010BD0000A8
:1014A00010B540F26034C2F200040A20A08146F672
:1014B0007240C2F2641046F66C7144F60A02C6F637
:1014C0005771C6F66542A0602046C4E90021FEF7C8
:1014D00049FF82B240F27C00C2F2000021460123A3
:1014E000BDE81040FFF786BC80B582B043F64000EF
:1014F000C4F2020050F8101C022341F0020140F82F
:10150000101C40F20041C4F202010A689FED1F0A5C
:1015100063F383020A604A6822F002024A60CA68E2
:1015200063F38302CA600A6A63F307120A620168FE
:10153000532241F00201016000210191006800F096
:101540000200019040F20040C4F2000082624FF4B9
:101550007A72C26246F668028261C2610164C16346
:101560008163416341F211110162812140F2254200
:101570000160C0F6000200200021FFF7ADFD40F23F
:10158000C801C2F20001487002B080BDCDCC4C3E13
:1015900080B543F63000C4F202000168B7EE000ADD
:1015A00041F00401016040F60000C4F2020001684D
:1015B00000210160026842F080620260426841607E
:1015C000426842608268816082688260C268C160ED
:1015D000C26842F00062C26042694161416941F201
:1015E000BD024161C0F6000200200021FFF774FD3A
:1015F00040F2C801C2F20001087080BD80B540F21F
:101600001D429FED070AC0F6000200200021FFF7EF
:1016100063FD40F2C801C2F20001C87080BD00BF86
:101620000000E14480B543F63000C4F202000168D6
:10163000012241F0010101600020C4F202000168B2
:101640009FED0D0A21F003010160416821F00101C5
:101650004160C16862F3010141F26102C160C0F6FC
:10166000000200200021FFF737FD40F2C801C2F25E
:101670000001887080BD00BF0AD7A33B80B540F24F
:101680007C0041F20001C2F20000C4F2010100231B
:101690004FF00C0C4FF4E13280E80E00C0E9033348
:1016A000C0E905C3C361FFF745FB08B1FEE700BF12
:1016B00041F2A142C0F60002B7EE000A002000216C
:1016C000FFF70AFD40F2C801C2F20001087180BDB7
:1016D00010B54EF2140C40F2780ECEF2000CC2F2AD
:1016E000000E00BFDEF80020DCF80010DCF804304B
:1016F000DEF80040A2421DD0DEF80020DCF8001029
:10170000DCF80430DEF80040A24213D0DEF80020FE
:10171000DCF80010DCF80430DEF80040A24209D00A
:10172000DEF80020DCF80010DCF80430DEF80040C1
:10173000A242D7D1DCF80040C91A631C0024E3FBA5
:101740000214C0E9001410BDB0B54EF2140C40F202
:10175000780ECEF2000CC2F2000E00BFDEF80030B0
:10176000DCF80020DCF80440DEF80050AB421DD06D
:10177000DEF80030DCF80020DCF80440DEF8005031
:10178000AB4213D0DEF80030DCF80020DCF8044077
:10179000DEF80050AB4209D0DEF80030DCF8002063
:1017A000DCF80440DEF80050AB42D7D1DCF8005042
:1017B000141B01350022E5FB0342031B71EB0203FE
:1017C0000ED2201A01EE100A9FED122AB8EE411A2D
:1017D00062EB010121EE021A9FED0F2A0CE000BF1F
:1017E000001B01EE100A9FED092AB8EE411A914143
:1017F00021EE021A9FED062A00EE101AB8EE400AFA
:1018000020EE020A30EE010AB0BD00BFB2854CB234
:10181000B2854CC2B2854C32B2854C4210B54EF204
:10182000140C40F2780ECEF2000CC2F2000E00BF93
:10183000DEF80020DCF80010DCF80430DEF80040B0
:10184000A2421DD0DEF80020DCF80010DCF80430E5
:10185000DEF80040A24213D0DEF80020DCF80010D1
:10186000DCF80430DEF80040A24209D0DEF80020A7
:10187000DCF80010DCF80430DEF80040A242D7D1DA
:10188000DCF80040C91A01340023E4FB0213D0E95C
:10189000002C541A7CEB030410D28A1A01EE102A91
:1018A0009FED142AB8EE411A63EB0C0421EE021AE4
:1018B0009FED112A00EE104A0FE000BF521A01EE10
:1018C000102A9FED0A2AB8EE411A6CEB030421EEB0
:1018D000021A9FED072A00EE104AB8EE400A20EEE9
:1018E000020A30EE010AC0E9001310BDB2854CB205
:1018F000B2854CC2B2854C32B2854C4280B5FFF7FE
:1019000019FDFFF745FEFFF7EFFDFFF777FEFFF745
:1019100089FEFFF7B3FEFFF7A7FC002080BD0000A3
:1019200040F21001C2F2000108607047F1EE100AA7
:101930004FF6FF71C0F2C03120EA010040F0407064
:10194000E1EE100A704700000000000000000102F4
:101950000304060708090000000001020304000058
:10196000801900080000002018000000D0010008C5
:10197000981900081800002090090000EC010008E8
:101980001000000001000000FFFF00000024F40030
:0819900004000000000000004B
:040000050800019559
:00000001FF
